{
  "transactions": [
    {
      "hash": "0xe7fec85349963fe820e81ea9a69c792d3f91f9617981abd474c1f26c963c8051",
      "transactionType": "CALL",
      "contractName": null,
      "contractAddress": "0xe2c36310d7a1008f278f27f37939d0e58249766c",
      "function": "mintNft(string)",
      "arguments": [
        "ipfs://bafybeig37ioir76s7mg5oobetncojcm3c3hxasyd4rvid4jqhy4gkaheg4/?filename=0-PUG.json"
      ],
      "transaction": {
        "from": "0xd843cbe0bdee3e884fd32ce4942219830d5944da",
        "to": "0xe2c36310d7a1008f278f27f37939d0e58249766c",
        "gas": "0x43166",
        "value": "0x0",
        "input": "0xda86f4a900000000000000000000000000000000000000000000000000000000000000200000000000000000000000000000000000000000000000000000000000000057697066733a2f2f62616679626569673337696f6972373673376d67356f6f6265746e636f6a636d3363336878617379643472766964346a71687934676b61686567342f3f66696c656e616d653d302d5055472e6a736f6e000000000000000000",
        "nonce": "0x1c",
        "chainId": "0xaa36a7"
      },
      "additionalContracts": [],
      "isFixedGasLimit": false
    }
  ],
  "receipts": [
    {
      "status": "0x1",
      "cumulativeGasUsed": "0x915a52",
      "logs": [
        {
          "address": "0xe2c36310d7a1008f278f27f37939d0e58249766c",
          "topics": [
            "0xddf252ad1be2c89b69c2b068fc378daa952ba7f163c4a11628f55a4df523b3ef",
            "0x0000000000000000000000000000000000000000000000000000000000000000",
            "0x000000000000000000000000d843cbe0bdee3e884fd32ce4942219830d5944da",
            "0x0000000000000000000000000000000000000000000000000000000000000000"
          ],
          "data": "0x",
          "blockHash": "0xfb5c12f02fc8454807ee7b356d0a4ea3ec6d20d04e08f08abba01319c17f7c34",
          "blockNumber": "0x8e68d2",
          "blockTimestamp": "0x68df9084",
          "transactionHash": "0xe7fec85349963fe820e81ea9a69c792d3f91f9617981abd474c1f26c963c8051",
          "transactionIndex": "0x4b",
          "logIndex": "0x6c",
          "removed": false
        }
      ],
      "logsBloom": "0x00000000000000010000000000000000000000000000000000000000000000000000000000000000000000000000000000000000000000000000000000000000000000000000000000000008000000000000000000000000001000000000000000000000020000000000000000000800000000000040000000000010000000000000000000000000000000000000000000000000000000000000000000100000000000000000000000000000000000000000000000000000000008000000000000000002000000000000000000000000000000000000000000000000000020000000000000000000000000000000000000000000000000000000008000000000",
      "type": "0x2",
      "transactionHash": "0xe7fec85349963fe820e81ea9a69c792d3f91f9617981abd474c1f26c963c8051",
      "transactionIndex": "0x4b",
      "blockHash": "0xfb5c12f02fc8454807ee7b356d0a4ea3ec6d20d04e08f08abba01319c17f7c34",
      "blockNumber": "0x8e68d2",
      "gasUsed": "0x2ddf3",
      "effectiveGasPrice": "0xf4253",
      "from": "0xd843cbe0bdee3e884fd32ce4942219830d5944da",
      "to": "0xe2c36310d7a1008f278f27f37939d0e58249766c",
      "contractAddress": null
    }
  ],
  "libraries": [],
  "pending": [],
  "returns": {},
  "timestamp": 1759481989182,
  "chain": 11155111,
  "commit": "76dda5f"
}