{
  "transactions": [
    {
      "hash": "0xabc0e685e0297da0c4770a06b7aaf78e8760af410b8f017a38fe87d113e33757",
      "transactionType": "CALL",
      "contractName": "BasicNft",
      "contractAddress": "0xe2c36310d7a1008f278f27f37939d0e58249766c",
      "function": "mintNft(string)",
      "arguments": [
        "ipfs://bafybeig37ioir76s7mg5oobetncojcm3c3hxasyd4rvid4jqhy4gkaheg4/?filename=0-PUG.json"
      ],
      "transaction": {
        "from": "0xd843cbe0bdee3e884fd32ce4942219830d5944da",
        "to": "0xe2c36310d7a1008f278f27f37939d0e58249766c",
        "gas": "0x36e04",
        "value": "0x0",
        "input": "0xda86f4a900000000000000000000000000000000000000000000000000000000000000200000000000000000000000000000000000000000000000000000000000000057697066733a2f2f62616679626569673337696f6972373673376d67356f6f6265746e636f6a636d3363336878617379643472766964346a71687934676b61686567342f3f66696c656e616d653d302d5055472e6a736f6e000000000000000000",
        "nonce": "0x21",
        "chainId": "0xaa36a7"
      },
      "additionalContracts": [],
      "isFixedGasLimit": false
    }
  ],
  "receipts": [
    {
      "status": "0x1",
      "cumulativeGasUsed": "0x5e7e0a",
      "logs": [
        {
          "address": "0xe2c36310d7a1008f278f27f37939d0e58249766c",
          "topics": [
            "0xddf252ad1be2c89b69c2b068fc378daa952ba7f163c4a11628f55a4df523b3ef",
            "0x0000000000000000000000000000000000000000000000000000000000000000",
            "0x000000000000000000000000d843cbe0bdee3e884fd32ce4942219830d5944da",
            "0x0000000000000000000000000000000000000000000000000000000000000004"
          ],
          "data": "0x",
          "blockHash": "0xcd8ec3c5f32deb7f96a5eb9654cf5bbaa3699b06678d60a77965e542e6bd4ec9",
          "blockNumber": "0x8ee022",
          "blockTimestamp": "0x68e55afc",
          "transactionHash": "0xabc0e685e0297da0c4770a06b7aaf78e8760af410b8f017a38fe87d113e33757",
          "transactionIndex": "0x39",
          "logIndex": "0x37",
          "removed": false
        }
      ],
      "logsBloom": "0x00000000000000010000000000000000000000000000000000000000000000000000000000000000000000000000000000000000000000000000000000000000000000000000000000000008000000000000000000000000001000000000000008000000020000000000000000000800000000000040000000000010000000000000000000000000000000000000000000000000000000000000000000100000000000000000000000000000000000000000000000000000002008000000000000000002000000000000000000000000000000008000000000000000000020000000000000000000000000000000000000000000000000000000008000000000",
      "type": "0x2",
      "transactionHash": "0xabc0e685e0297da0c4770a06b7aaf78e8760af410b8f017a38fe87d113e33757",
      "transactionIndex": "0x39",
      "blockHash": "0xcd8ec3c5f32deb7f96a5eb9654cf5bbaa3699b06678d60a77965e542e6bd4ec9",
      "blockNumber": "0x8ee022",
      "gasUsed": "0x2585b",
      "effectiveGasPrice": "0xf8326",
      "from": "0xd843cbe0bdee3e884fd32ce4942219830d5944da",
      "to": "0xe2c36310d7a1008f278f27f37939d0e58249766c",
      "contractAddress": null
    }
  ],
  "libraries": [],
  "pending": [],
  "returns": {},
  "timestamp": 1759861501659,
  "chain": 11155111,
  "commit": "ae0eafa"
}